:020000040800F2
:10000000B09A002001080008AD040008AF04000801
:10001000B3040008B7040008BB0400080000000097
:10002000000000000000000000000000DD010008EA
:10003000BF0400080000000021020008C1040008FD
:100040001B0800081B0800081B0800081B08000804
:100050001B0800081B0800081B0800081B080008F4
:100060001B0800081B0800081B0800081B080008E4
:100070001B0800081B0800081B0800081B080008D4
:100080001B0800081B0800081B0800081B080008C4
:100090001B0800081B0800081B0800081B080008B4
:1000A0001B0800081B0800081B0800081B080008A4
:1000B0001B0800081B0800081B0800081B08000894
:1000C0001B0800081B0800081B0800081B08000884
:1000D0001B080008DB1400081B0800081B080008A8
:1000E0001B0800081B0800081B0800081B08000864
:1000F0001B0800081B0800081B0800081B08000854
:100100001B0800081B0800081B0800081B08000843
:100110001B0800081B0800081B0800081B08000833
:100120001B0800081B0800081B0800081B08000823
:1001300000F002F800F042F80AA090E8000C8244B7
:100140008344AAF10107DA4501D100F037F8AFF294
:10015000090EBAE80F0013F0010F18BFFB1A43F0A5
:10016000010318470830000028300000103A24BF6F
:1001700078C878C1FAD8520724BF30C830C144BF0C
:1001800004680C607047000000230024002500264E
:10019000103A28BF78C1FBD8520728BF30C148BFEA
:1001A0000B607047642902F0D186732902F07987C9
:1001B000002070471FB51FBD10B510BD02F0A4FF91
:1001C0001146FFF7F7FF00F0E9F802F0C2FF03B4B1
:1001D000FFF7F2FF03BC01F025F90000224B19687C
:1001E0000868B0E8F00F80F30988BFF36F8F4FF015
:1001F000000080F311884EF00D0E704700000000E3
:1002000006480068006880F3088862B661B6BFF3EC
:100210004F8FBFF36F8F00DF00BF00BF08ED00E01E
:10022000EFF30980BFF36F8F0F4B1A6820E9F00FCF
:10023000106008B54FF0500080F31188BFF34F8F66
:10024000BFF36F8F01F034FE4FF0000080F3118890
:10025000BDE8084019680868B0E8F00F80F3098825
:10026000BFF36F8F704700BF44000020EFF305809D
:100270007047000010B54FF4407000F0E1FA00F054
:1002800013FA00F03FFA4FF4E13001F0DAF810BD54
:100290001BE0002000F05FFA012802D0022810D1F4
:1002A00007E04CA002F0E8FD4D48006801F039FE7F
:1002B00007E04CA002F0E0FD4948006801F0B6FEFE
:1002C00000BF00BF142001F0D1FCE2E712E048A01B
:1002D00002F0D2FD04214A4800F02FFC4FF4FA70DE
:1002E00001F0C4FC0421464800F025FC4FF4FA70EC
:1002F00001F0BCFCEBE714E042A002F0BDFD4FF4BE
:100300008071444800F019FC4FF4FA7001F0AEFC23
:100310004FF480713F4800F00EFC4FF4FA7001F08A
:10032000A5FCE9E71CB5012402F0FBFC2C480321E5
:1003300000236202CDE9001037A13A4801F017FA14
:100340000446012C02D138A002F096FD3B4804215E
:100350000023CA01CDE9001039A13C4801F007FA99
:100360000446012C02D13AA002F086FD3D48052149
:1003700000234FF40072CDE900103BA13D4801F08D
:10038000F6F90446012C02D13BA002F075FD3F486E
:10039000006801F03AFA02F0E7FC1CBD1CB501242C
:1003A000FFF768FF3948012100234A02CDE9001018
:1003B00037A13B4801F0DBF90446012C05D139A0F7
:1003C00002F05AFD01F0F6FE02E04FF0FF301CBDD6
:1003D00000BFFEE74C454431B9D2C6F00000000032
:1003E000040000204C454431BBD6B8B400000000E6
:1003F000C8CECEF132CFC8D4CBD0D00D0A00000089
:1004000000140140C8CECEF131CFC8D4CBD0D00D2E
:100410000A000000000801404C4544315F546173FC
:100420006B000000F7020008B4B4BDA84C4544318D
:10043000C8CECEF1B3C9B9A60D0A0000080000204D
:100440004C4544325F5461736B000000CD020008DC
:10045000B4B4BDA84C454432C8CECEF1B3C9B9A698
:100460000D0A00000C0000204B45595F5461736B6E
:100470000000000091020008B4B4BDA84B4559C863
:10048000CECEF1B3C9B9A60D0A00000000000020CD
:100490004170705461736B43726561746500000054
:1004A000250300087374617274000000704700BF78
:1004B000FEE700BFFEE700BFFEE700BFFEE77047B4
:1004C00010B502F069FC10BD0CB500200190009041
:1004D0006C48006840F480306A49086000BF694891
:1004E000006800F4003000900198401C01900098D2
:1004F00018B90198B0F5A06FF1D16248006800F416
:10050000003010B10120009001E000200090009820
:10051000012843D15C48006840F010005A49086047
:100520000846006820F0030008600846006840F0B4
:1005300002000860534840685249486008464068D5
:1005400048600846406840F480604860084640685B
:1005500020F47C1048600846406840F4E810486089
:100560000846006840F08070086000BF4548006899
:1005700000F000700028F9D04248406820F00300E5
:10058000404948600846406840F00200486000BFAB
:100590003C48406800F00C000828F9D10CBD10B5AB
:1005A000FFF792FF10BD10B53648006840F001001B
:1005B0003449086008464068344908403149486079
:1005C00008460068324908402E490860084600681D
:1005D00020F4802008600846406820F4FE0048604F
:1005E0004FF41F008860FFF7DAFF4FF000602949E1
:1005F000086010BD10B5002100200022214B5B686F
:1006000003F00C0121B1042906D0082928D107E004
:10061000214B224C236027E01F4B204C236023E01A
:10062000184B5B6803F47010164B5B6803F4803260
:10063000022303EB904022B9194B4343174C23602C
:100640000DE0104B5B6803F4003323B1144B4343BC
:10065000124C236003E0104B4343104C236003E033
:100660000D4B0E4C236000BF00BF064B5B68C3F30D
:1006700003130C4CE15C094B1B68CB40074C236017
:1006800010BD000000100240002002400000FFF8F2
:10069000FFFFF6FE08ED00E000127A0010000020D7
:1006A00000093D001400002008B50121242000F0BD
:1006B00051FC4FF48070ADF8000010208DF803005D
:1006C00003208DF8020069460C4800F087F94FF4CA
:1006D00080710A4800F02FFA0420ADF800001020C5
:1006E0008DF8030003208DF802006946044800F0ED
:1006F00075F90421024800F01EFA08BD0008014007
:100700000014014008B50121142000F023FC012150
:10071000374800F034FA4FF40040ADF800004820AC
:100720008DF803006946334800F058F92020ADF8F1
:10073000000048208DF8030069462F4800F04EF96C
:100740000120ADF8000028208DF8030069462948F3
:1007500000F044F908BD10B5044614B10120274942
:1007600008702648007868B32021234800F0C9F9B2
:1007700058B14FF400411F4800F0C3F928B10121DE
:100780001C4800F0BEF901281CD10A2001F06EFAC5
:1007900000201A4908702021174800F0B2F908B962
:1007A000012010BD4FF40041124800F0AAF908B929
:1007B0000220F6E701210F4800F0A3F9012815D126
:1007C0000320EEE720210C4800F09BF901280DD111
:1007D000C103084800F095F9012807D10121054817
:1007E00000F08FF910B90120044908700020D8E703
:1007F00000023000000801400010014024000020E9
:100800000948804709480047FEE7FEE7FEE7FEE7A4
:10081000FEE7FEE7FEE7FEE7FEE7FEE704480549E0
:10082000054A064B70470000A70500083101000883
:10083000B0940020B09A0020B0960020B09600201E
:1008400031490143314A1160704770B500210023DE
:100850000F22C47804B32D4C246804F4E064C4F57A
:10086000E064210AC1F10403CA40447804FA03F1A8
:100870008478144021430901254C0678A155047859
:1008800004F01F050124AC4005786D11AD0005F1A1
:10089000E025C5F8004109E0047804F01F050124B3
:1008A000AC401C4D0678761145F8264070BD1A4ABA
:1008B0000A400243154B1B1F1A60704739B1134A97
:1008C000121D12680243114B1B1D1A6006E00F4AED
:1008D000121D126882430D4B1B1D1A6070470428BD
:1008E00008D14FF0E021096941F004014FF0E02206
:1008F000116107E04FF0E021096921F004014FF098
:10090000E0221161704700000000FA050CED00E0E4
:1009100000E400E080E100E080FFFF1F10B5044626
:10092000CC48844208D10121042000F02DFB002195
:10093000042000F029FB46E0C748844208D1012189
:10094000082000F021FB0021082000F01DFB3AE008
:10095000C248844208D10121102000F015FB00217B
:10096000102000F011FB2EE0BD48844208D1012187
:10097000202000F009FB0021202000F005FB22E0F0
:10098000B848844208D10121402000F0FDFA00213E
:10099000402000F0F9FA16E0B348844208D1012162
:1009A000802000F0F1FA0021802000F0EDFA0AE04A
:1009B000AE48844207D10121801500F0E5FA0021FC
:1009C000A01500F0E1FA10BD10B50121084600F0B5
:1009D000DBFA0021012000F0D7FA10BD2DE9F0412B
:1009E000024600250026002000230024002791F85D
:1009F00003C00CF00F0591F803C00CF0100CBCF113
:100A0000000F03D091F802C04CEA050591F800C030
:100A1000BCF1000F31D0146800202BE04FF0010C26
:100A20000CFA00F3B1F800C00CEA03069E4220D194
:100A300083004FF00F0C0CFA03F7BC4305FA03FCDC
:100A40004CEA040491F803C0BCF1280F06D14FF022
:100A5000010C0CFA00FCC2F814C00AE091F803C0C3
:100A6000BCF1480F05D14FF0010C0CFA00FCC2F8A4
:100A700010C0401C0828D1D31460B1F800C0BCF1EC
:100A8000FF0F34DD546800202EE000F1080C4FF019
:100A9000010808FA0CF3B1F800C00CEA03069E4204
:100AA00021D183004FF00F0C0CFA03F7BC4305FA79
:100AB00003FC4CEA040491F803C0BCF1280F05D1F3
:100AC00000F1080C08FA0CF8C2F8148091F803C081
:100AD000BCF1480F07D100F1080C4FF0010808FAEB
:100AE0000CF8C2F81080401C0828CED35460BDE832
:100AF000F0814FF6FF710180022181700421C170E5
:100B000070470246002093680B400BB1012000E0C3
:100B1000002070470146886880B270470246002076
:100B2000D3680B400BB1012000E000207047014664
:100B3000C86880B2704701617047416170470AB16F
:100B4000016100E041617047C16070474FF480323D
:100B50000A438261816182618269826970470246CB
:100B60000020434B18684FF68073184040EA02108B
:100B700008433F4B186070473E49C8617047F0B565
:100B80000A46002300240021002500F00046B6F1AB
:100B9000004F02D1364EF16901E0354E7168C0F365
:100BA000034583B200F44016B6F5401F08D121F08A
:100BB00070612F4E766826F070662D4F7E6012E0D1
:100BC00000F48016B6F5801F06D1032606FA05F458
:100BD000A14341F0706106E0460D360103FA06F6C6
:100BE000B14341F0706122B1460D360103FA06F6B9
:100BF000314300F00046B6F1004F02D11C4EF161C6
:100C000001E01B4E7160F0BD30B500228B071C0F58
:100C10000F2303FA04F2164B08338C1053F82430D8
:100C20009343134C08348D1044F8253023468C1020
:100C300053F824308C07240F00FA04F423430C4C9F
:100C400008348D1044F8253030BD0A49DC31086085
:100C50007047000000080140000C014000100140F6
:100C60000014014000180140001C01400020014018
:100C70000000014000002042DF48006840F0010011
:100C8000DD49086008464068DC490840DA494860A8
:100C900008460068DA490840D749086008460068F5
:100CA00020F4802008600846406820F4FE00486078
:100CB0004FF41F0088607047CF49096821F48031E4
:100CC000CD4A11601146096821F480211160B0F508
:100CD000803F03D0B0F5802F0ED106E0C6490968E9
:100CE00041F48031C44A116007E0C349096841F406
:100CF000A021C14A116000E000BF00BF704710B5DD
:100D000001460022002300204A11012A02D1BA4CD8
:100D1000236806E0022A02D1B74C236A01E0B64CF0
:100D2000636A01F01F02012494401C400CB10120B1
:100D300000E0002010BD38B5002000900024002500
:100D400000BF3120FFF7DBFF05460098401C0090F4
:100D50000098B0F5A06F01D0002DF2D03120FFF740
:100D6000CEFF08B1012400E00024204638BD014632
:100D70000020A14A106820F0F80040EAC10010608D
:100D80007047A04908607047024600209A4B586897
:100D900020F47C1042EA01031843974B58607047D7
:100DA00098490866704701460020934A506820F031
:100DB00003000843506070478F48406800F00C0003
:100DC0007047014600208C4A506820F0F00008432C
:100DD0005060704701460020874A506820F4E06068
:100DE00008435060704701460020834A506820F451
:100DF000605040EAC1005060704729B17E4A527A83
:100E000002437D4B5A7204E07B4A527A82437A4B0A
:100E10005A7270477B49D8310860704701460020FC
:100E2000754A506820F440400843506070470021E4
:100E3000714A20321170704A82F82010012802D0C5
:100E400004280AD104E001216B4A2032117005E028
:100E50000521694A2032117000E000BF00BF7047D1
:100E60006949086070476449096A0143624A11622E
:100E70007047654944390860704730B50021002249
:100E8000002400235C4D6D6805F00C0121B104299C
:100E900005D0082923D105E05C4D056022E05B4DBB
:100EA00005601FE0544D6D6805F47012524D6D6879
:100EB00005F48034022505EB92421CB9544D55438C
:100EC00005600BE04C4D6D6805F400351DB1504DCB
:100ED0005543056002E04D4D5543056002E04B4D22
:100EE000056000BF00BF444D6D6805F0F0010909C1
:100EF000484D6B5C0568DD4045603F4D6D6805F40D
:100F0000E061090A434D6B5C4568DD4085603A4D00
:100F10006D6805F46051C90A3E4D6B5C4568DD4063
:100F2000C560354D6D6805F44041890B3A4D6B5CE9
:100F3000C568B5FBF3F5056130BD29B12E4A52698C
:100F400002432D4B5A6104E02B4A526982432A4BDB
:100F50005A61704729B1284A92690243264B9A6127
:100F600004E0254A92698243234B9A61704729B174
:100F7000214AD2690243204BDA6104E01E4AD26959
:100F800082431D4BDA61704729B11B4AD268024384
:100F9000194BDA6004E0184AD2688243164BDA60D3
:100FA000704729B1144A12690243134B1A6104E0D5
:100FB000114A12698243104B1A6170471249403935
:100FC000086070470F49C86470470B49C871704783
:100FD0000948406A40F080700749486270470146FE
:100FE0000020054A92680A400AB1012000E0002072
:100FF0007047014988727047001002400000FFF8F6
:10100000FFFFF6FE000042428004424200127A00D6
:1010100000093D00250000203500002010B50446E1
:10102000FB48844209D101218803FFF7ADFF00216D
:101030004FF48040FFF7A8FF32E0F648844209D120
:1010400001214804FFF7ADFF00214FF40030FFF706
:10105000A8FF25E0F048844209D101218804FFF768
:10106000A0FF00214FF48020FFF79BFF18E0EB4822
:10107000844209D10121C804FFF793FF00214FF4F6
:101080000020FFF78EFF0BE0E548844208D10121E4
:101090000805FFF786FF00214FF48010FFF781FF5E
:1010A00010BD2DE9F04786B005460E460024A24645
:1010B00000BFA1460027B08900B100BF2F462C8A8F
:1010C0004CF6FF700440F08804432C82AC894EF645
:1010D000F3100440B0883189084371890843044300
:1010E000AC81AC8A4FF6FF400440B0890443AC8227
:1010F00001A8FFF7C2FEC648874202D1DDF810A062
:1011000001E0DDF80CA0A88900F4004040B10AEB32
:10111000CA0000EB0A1031684900B0FBF1F807E0A3
:101120000AEBCA0000EB0A1031688900B0FBF1F845
:101130006420B8FBF0F004012009642101FB108950
:10114000A88900F4004040B1322000EBC900B0FB98
:10115000F1F000F00700044308E0322000EB091032
:101160006421B0FBF1F000F00F0004432C8106B0C5
:10117000BDE8F0874FF41651016000218180C180E5
:1011800001810C21418100218181704710B5024607
:101190000020108A4FF2FF0318400B884C8823432D
:1011A0008C882343CC8823431843108210BD002130
:1011B000018041808180C180704721B1828942F4E1
:1011C0000052828104E082894DF6FF731A408281C9
:1011D0007047F0B50346002400260025002040F6A5
:1011E0006A17B94200D100BF1846C1F3421401F09A
:1011F0001F06012707FA06F5012C01D10C3004E087
:10120000022C01D1103000E014301AB107682F43CE
:10121000076002E00768AF430760F0BD1AB1838A38
:101220000B43838202E0838A8B4383827047028A66
:101230004FF6F0731A400282028A0A430282704714
:1012400082894FF2FF731A40828182890A43828128
:10125000704721B1828942F00202828104E08289D2
:101260004FF6FD731A4082817047028A4FF6DF7392
:101270001A400282028A0A430282704721B1028A1E
:1012800042F48042028204E0028A4BF6FF731A4065
:1012900002827047C1F30802828070470146888845
:1012A000C0F308007047818941F0010181817047D6
:1012B000028BD2B20283028B42EA01220283704780
:1012C000028B02F47F420283028B0A43028370473F
:1012D00021B1828A42F02002828204E0828A4FF6A3
:1012E000DF731A408282704721B1828A42F0100275
:1012F000828204E0828A4FF6EF731A40828270473E
:1013000021B1828A42F00802828204E0828A4FF68A
:10131000F7731A408282704721B1828942F40042F9
:10132000828103E08289C2F30E028281704721B17B
:10133000828A42F40062828204E0828A4FF2FF7362
:101340001A4082827047828A4FF6FB731A4082826B
:10135000828A0A438282704721B1828A42F0020265
:10136000828204E0828A4FF6FD731A4082827047BF
:1013700002460020B1F5007F00D100BF13880B406A
:101380000BB1012000E00020704701F40072B2F5BB
:10139000007F00D100BFCA430280704770B502468B
:1013A000002400230025002040F66A16B14200D137
:1013B00000BFC1F3421501F01F03012606FA03F333
:1013C000012D02D19689334006E0022D02D1168A02
:1013D000334001E0968A33400C12012606FA04F4E9
:1013E0001688344013B10CB1012000E0002070BD1C
:1013F00010B50022002340F66A14A14200D100BFBC
:101400000A1201249440A3B2DC43048010BD000002
:10141000003801400044004000480040004C0040BB
:1014200000500040014600BF704700BF494A128883
:1014300002F04002002AF9D0C2B2464B1B1D1A80AE
:10144000704710B586B00446012144F20400FFF74E
:1014500081FD4FF40070ADF8140003208DF81600E4
:1014600018208DF8170005A93B48FFF7B7FA4FF48D
:101470008060ADF8140004208DF8170005A93648E7
:10148000FFF7ACFA25208DF8000003208DF801004D
:101490008DF8020001208DF803006846FFF7D5F9AA
:1014A00001940020ADF80800ADF80A00ADF80C007A
:1014B000ADF810000C20ADF80E0001A92548FFF78B
:1014C000F0FD012240F225512248FFF782FE012162
:1014D0002048FFF772FE06B010BD10B540F225514E
:1014E0001C48FFF75BFF10B31A48FFF7D7FEC4B2E2
:1014F0001A48008800F40040C8B91848008800F471
:10150000804060B10A2C03D000201449088020E0FC
:101510001248008840F400401049088019E00D2C62
:1015200006D10E48008840F480400C49088010E045
:101530000A480088C0F30D0009490C540748008888
:10154000401C0649088008460088C72801DD0020A5
:10155000088010BD00380140000801404000002014
:10156000A400002000F1080141604FF0FF318160CC
:1015700000F10801C1600161002101607047002194
:101580000161704742684A6093688B609368596054
:101590009160086103685B1C0360704710B50246E8
:1015A0000B685C1C0CB9106907E002F1080000E050
:1015B0004068446824689C42FAD944684C604C688E
:1015C000A160886041600A611468641C146010BDE9
:1015D00001460A69D1E901309860D1E901035860F8
:1015E0005068884201D18868506000200861106806
:1015F000401E10601068704710B5002407E004EB2F
:101600008401FE4A02EB8100FFF7ACFF641C202C32
:10161000F5D3FB48FFF7A6FFFA48FFF7A3FFFA4808
:10162000FFF7A0FFF948FFF79DFFF948FFF79AFF82
:10163000F348F8490860F348F749086010BD10B551
:10164000044601F06EFBF5480068401CF349086051
:10165000F348006840B9F248046008460068012871
:101660000DD1FFF7C9FF0AE0EE48006838B9EC4831
:101670000068C06AE16A884201D8E9480460EA4823
:101680000068401CE849086094F82C10012088404C
:10169000E64909680843E5490860E16A01EB810110
:1016A000D64A02EB8100211DFFF76CFF01F05CFBC5
:1016B000DC48006868B1DA480068C06AE16A8842BC
:1016C00007D24FF08050DA490860BFF34F8FBFF365
:1016D0006F8F10BD2DE9FF5F81460E469246DDE912
:1016E0000E7B109CAAF10100216B01EB800828F011
:1016F000070808F0070008B9012000E0002028B919
:1017000040F22B32CBA1D1A001F0B6FB002507E0BF
:10171000715D04F134004155705D00B902E06D1C4B
:10172000102DF5D300BF002143200155202F00D3F9
:101730001F27E762201DFFF722FF04F11800FFF7C3
:101740001EFF2461C7F12000A06164620020606474
:1017500084F8480049464046039A01F06FFA206039
:10176000BBF1000F01D0CBF80040BDE8FF9F2DE991
:10177000FF4F85B0804689461746DDE912ABB800B9
:1017800001F057F9064656B14C2001F052F90446D3
:101790000CB1266304E0304601F0CEF900E00024ED
:1017A0007CB10020CDE900ABCDE902403A46494684
:1017B0004046089BFFF78EFF2046FFF740FF0125BC
:1017C00001E04FF0FF35284609B0BDE8F08F9149A0
:1017D0000968096809B9012100E0002121B14FF031
:1017E000FF319E4A116006E08A490968C968C868E5
:1017F0009A4A41681160704710B50446206B01F0A9
:101800009BF9204601F098F910BD70B5054601F02E
:1018100088FA15B98248006800E028460446201D71
:10182000FFF7D6FE78B9E06A00EB8000734951F803
:10183000200040B994F82C10012088407B490968A9
:1018400081437A480160A06A18B104F11800FFF7DB
:10185000BFFE75480068401C734908607048006806
:10186000844209D1211D6948FFF78CFE7C4800683D
:10187000401C7B49086009E068480068401E6749D1
:1018800008602046FFF7B8FFFFF7A1FF01F06CFAF0
:1018900064480068C0B162480068844214D171484D
:1018A000006808B9012000E0002028B940F2654234
:1018B00060A166A001F0E0FA4FF080505C4908603A
:1018C000BFF34F8FBFF36F8F70BD2DE9F0414FF025
:1018D000000864480068002872D163480068451C0D
:1018E00061480560EDB94B480068006808B90120FF
:1018F00000E0002028B940F6D9124EA153A001F013
:10190000BBFA4448076844480068424908604248B6
:10191000076056480068401C54490860FFF757FFAD
:1019200000BF4E48006885423CD300BF394800687C
:10193000006808B9012000E0002020B14FF0FF301E
:10194000464908602DE033480068C068C46866688E
:10195000B54202D24148066023E0201DFFF738FE61
:10196000A06A18B104F11800FFF732FE94F82C10A9
:10197000012088402D49096808432C490860E16A24
:1019800001EB81011D4A02EB8100211DFFF7FAFDE9
:101990002349E06A0968C96A8842C7D34FF0010841
:1019A000C4E700BF1E480068C06A00EB800013490E
:1019B00051F82000012801D94FF0010805E0FFE7A8
:1019C0002B480068401C2A4908602A48006808B172
:1019D0004FF001084046BDE8F08170B500240026B4
:1019E0002048006828B94FF4FD6212A117A001F049
:1019F00043FA01F096F91B4800683DE06C010020B5
:101A0000EC0300200004002014040020280400201F
:101A10003C040020480000204C000020540000201E
:101A20004400002060000020700000205C000020C6
:101A300004ED00E02E2E5C4672656552544F535CF7
:101A40007372635C7461736B732E63004572726FA3
:101A5000723A25732C25640D0A00000074000020E2
:101A6000500000207C000020580000206C00002066
:101A70006400002068000020401EFE4908600846FF
:101A8000006800284FD1FC48006800284BD024E0B3
:101A9000FA48C068C46804F11800FFF799FD201DDA
:101AA000FFF796FD94F82C1001208840F44909684E
:101AB0000843F3490860E16A01EB8101F14A02EB56
:101AC0008100211DFFF75EFDEF49E06A0968C96AE0
:101AD000884202D30120ED490860E848006808B94F
:101AE000012000E000200028D2D00CB1FFF76FFEEB
:101AF000E748056865B100BFFFF7E7FE10B10120B8
:101B0000E24908606D1E002DF6D10020E049086012
:101B1000DE48006838B101263007DE490860BFF3AF
:101B20004F8FBFF36F8F01F01FF9304670BD2DE965
:101B3000F04105460E46D8480768D3480068001DA6
:101B4000FFF746FD50B9D048006890F82C100120EE
:101B50008840CB4909688143C9480160681C38B98D
:101B600036B1C9480168091DCC48FFF70BFD1AE0E2
:101B70007C19C54800684460BC4207D2C24801686D
:101B8000091DC7480068FFF709FD0CE0BE48016861
:101B9000091DC4480068FFF701FDC348006884427E
:101BA00001D2C1480460BDE8F081B2480068401C21
:101BB000B049086070472DE9F04704460F464FF0E2
:101BC00000093CB940F27942AFF29811AFF28410AB
:101BD00001F052F90FB1012000E0002038B940F2C5
:101BE0007A42AFF2B011AFF29C1001F045F9A14872
:101BF000006808B9012000E0002038B940F27B42BB
:101C0000AFF2D011AFF2BC1001F036F9FFF7CDFF03
:101C1000A14806682068C5192068B04207D9206825
:101C2000A8420BD9B54209D94FF0010906E0206856
:101C3000A84201D8B54201D94FF001092560B9F198
:101C4000000F03D0A81B0021FFF771FFFFF7C5FEAF
:101C50008046B8F1000F07D14FF080508D490860E1
:101C6000BFF34F8FBFF36F8FBDE8F08770B50446A9
:101C70000025BCB17F48006808B9012000E00020C1
:101C800038B940F2CF42AFF25421AFF2402001F018
:101C9000F3F8FFF78AFF00212046FFF748FFFFF720
:101CA0009CFE05463DB94FF080507A490860BFF36D
:101CB0004F8FBFF36F8F70BD2DE9F04107463E4651
:101CC0003EB940F2FB42AFF29421AFF2802001F026
:101CD000D3F86D480068864201D100241EE001F06F
:101CE00020F8756901F040F86E480068854203D01D
:101CF0006B480068854201D102240FE067488542A5
:101D000005D1B06A08B9032408E0022406E0674858
:101D1000854200D00DB9042400E001242046BDE82E
:101D2000F08170B5044600F0FCFF14B95648006815
:101D300000E020460646F56A01F016F8284670BD18
:101D40002DE9F041054601F03FF800BF5021EFF3C7
:101D5000118081F31188BFF34F8FBFF36F8F00BFE6
:101D6000044615B94848006800E028460746FE6A60
:101D700000BF84F3118800BF3046BDE8F0812DE933
:101D8000F04780460D464FF00009202D01D201207A
:101D900000E0002038B94FF4B062AFF26831AFF222
:101DA000543001F069F8202D00D31F2500F0B9FF51
:101DB000B8F1000F02D13448006800E04046044604
:101DC000E66AAE4251D0B5420BD92F480068844232
:101DD0000DD02D480068C06AA84208D84FF001090C
:101DE00005E029480068844201D14FF00109E76A03
:101DF000E562A06900F0004010B9C5F12000A061C3
:101E000007EB87011F4A02EB81016069884201D11B
:101E1000012000E00020E0B1201DFFF7D9FB30B920
:101E20000120B8401649096881431548016094F8BB
:101E30002C100120884012490968084310490860A5
:101E4000E16A01EB81010F4A02EB8100211DFFF7DE
:101E500099FBB9F1000F07D04FF080500D49086091
:101E6000BFF34F8FBFF36F8F00BF00F07DFFBDE862
:101E7000F08700007C0000205400002014040020A3
:101E80005C0000206C01002044000020680000205D
:101E90006400002004ED00E0580000203C04002015
:101EA0004C0000204800002074000020280400207E
:101EB00010B5FE48006818B10120FD4908602FE008
:101EC0000020FB490860FB480068B0FA80F0C0F1D0
:101ED0001F0404EB8400F84951F8200008B10120E8
:101EE00000E0002038B940F6F622AFF2B841AFF278
:101EF000A44000F0C1FF04EB8401EF4A02EB810033
:101F000041684968416000F1080142688A4202D193
:101F10004168496841604168C968E84A116000BF8A
:101F200010BD70B5054600F0FCFE15B9E348006829
:101F300000E028460446201DFFF74AFB78B9E06A16
:101F400000EB8000DC4951F8200040B994F82C10D7
:101F500001208840D74909688143D6480160A06ABA
:101F600018B104F11800FFF733FB211DD448FFF727
:101F700009FB00F0F9FED348006828B100F0D1FE5B
:101F8000FFF725FC00F0F0FECC480068844226D123
:101F9000CC480068B8B1C548006808B9012000E025
:101FA000002038B940F25762AFF27851AFF2645076
:101FB00000F062FF4FF08050C3490860BFF34F8FBD
:101FC000BFF36F8F0BE0BE480068C04909688842C4
:101FD00003D10020B949086001E0FFF769FF70BD37
:101FE00070B5054600262C463DB940F28162AFF23D
:101FF000BC51AFF2A85000F03FFFB1496069884280
:1020000001D1012000E0002070B1B149A06A8842EE
:1020100001D1012000E0002030B9A06A08B90120F8
:1020200000E0002000B10126304670BD70B50546C5
:102030002C463DB940F2AB62AFF20861AFF2F4500A
:1020400000F01AFF74B39D48006884422AD000F063
:1020500068FE2046FFF7C4FF10B3201DFFF7B8FA53
:1020600094F82C100120884092490968084391494E
:102070000860E16A01EB81018F4A02EB8100211DBA
:10208000FFF780FA8D49E06A0968C96A884207D378
:102090004FF080508C490860BFF34F8FBFF36F8FB4
:1020A00000F062FE70BD2DE9F0410646002734467F
:1020B0003EB940F2E262AFF28461AFF2706000F0CC
:1020C000DBFE00F081FE00BF5021EFF3118081F3B1
:1020D0001188BFF34F8FBFF36F8F00BF05462046B7
:1020E000FFF77EFF20B371480068E0B97349E06AEA
:1020F0000968C96A884200D30127201DFFF768FAE2
:1021000094F82C10012088406A49096808436949FD
:102110000860E16A01EB8101674A02EB8100211D41
:10212000FFF730FA04E004F118016948FFF72AFAD2
:1021300000BF85F3118800BF3846BDE8F08170B557
:1021400023E0FFF732FD6348006808B9012000E092
:1021500000200546FFF741FCBDB900F0E2FD5D48F7
:10216000C068C468201DFFF733FA58480068401E55
:102170005649086058480068401E5749086000F0FA
:10218000F3FD2046FFF738FB00BF534800680028E6
:10219000D7D170BD00BFFFF7D2FF474800680128C4
:1021A000F9D94FF0805048490860BFF34F8FBFF313
:1021B0006F8FF0E71CB5494800210B468022CDE91E
:1021C000001047A14848FFF7D2FA0446012C15D168
:1021D00000BF502080F31188BFF34F8FBFF36F8F84
:1021E00000BF4FF0FF3041490860012035490860C9
:1021F00000203F49086000F03DFD0DE0601C08B183
:10220000012000E0002038B940F28472AFF2DC71A6
:10221000AFF2C87000F030FE1CBD10B500BF5020FA
:1022200080F31188BFF34F8FBFF36F8F00BF002083
:102230002449086000F064FD10BD2D49086870470E
:1022400070B500F0C1FD002529480468204670BD26
:102250001E480068704770B5044614B917480068F6
:1022600000E0204605463DB940F68C02AFF63C0141
:10227000AFF6280000F000FE05F1340070BD70B527
:1022800004460D463CB940F60632AFF65801AFF6AB
:10229000440000F0F1FD0948016818312046FFF7BD
:1022A0007DF901212846FFF742FC70BD7C0000202B
:1022B000680000205C0000206C0100204400002029
:1022C0003C0400206000002004ED00E054000020E9
:1022D0001404002028040020500000207800002072
:1022E00049444C450000000095210008740000207E
:1022F0005800002070B504460D4616463CB940F61D
:102300001732AFF6D001AFF6BC0000F0B5FDFE48C5
:10231000006808B1012000E0002038B940F61B3207
:10232000AFF6F001AFF6DC0000F0A6FD45F000408E
:10233000F64909688861F548016818312046FFF7B9
:1023400021F901213046FFF7F2FB70BD70B506465A
:10235000F068C4683CB940F66132AFF62811AFF6B8
:10236000141000F089FD04F11800FFF731F9E64878
:102370000068A8B9201DFFF72BF994F82C10012054
:102380008840E34909680843E1490860E16A01EBD4
:102390008101E04A02EB8100211DFFF7F3F804E020
:1023A00004F11801DC48FFF7EDF8D849E06A096844
:1023B000C96A884204D901250120D849086000E093
:1023C0000025284670BD2DE9F04105460F46CE4850
:1023D000006808B1012000E0002038B940F69932C9
:1023E000AFF6B011AFF69C1000F046FD47F000408C
:1023F0002860EC683CB940F6A132AFF6C811AFF6E0
:10240000B41000F039FD2846FFF7E2F8201DFFF771
:10241000DFF894F82C1001208840BD490968084372
:10242000BB490860E16A01EB8101BA4A02EB810015
:10243000211DFFF7A7F8B549E06A0968C96A884213
:1024400004D901260120B549086000E00026304685
:10245000BDE8F08110B504463CB940F6C132AFF694
:102460002C21AFF6182000F007FDAD480068206071
:10247000AC480068606010BD2DE9F04104460D468F
:102480003CB940F6CB32AFF65421AFF6402000F015
:10249000F3FC3DB940F6CC32AFF66821AFF65420DC
:1024A00000F0EAFC00F03DFC9E4807682868401CEC
:1024B00008B9002619E09A4920680968884204D0C2
:1024C0006068B84201D801260FE06068381A2968B0
:1024D000884209D228686168791A401A2860204623
:1024E000FFF7B8FF002600E0012600F03DFC304673
:1024F000BDE8F08101208949086070478A49096870
:1025000009B9012005E08049096809B9022000E005
:10251000002070477D49096888697C490968C96A53
:10252000C1F12001794A12689161704770B5064681
:102530000D4600F0F6FB75480068406C88B9012034
:102540007249096881F848005DB101212846FFF70A
:10255000EEFA4FF0805075490860BFF34F8FBFF31C
:102560006F8F00F001FC00F0DCFB68480068446CF1
:102570004CB126B1002065490968486403E0601E3B
:1025800062490968486400206049096881F8480088
:1025900000F0EAFB204670BD2DE9F0410746884671
:1025A00014461D4600F0BDFB5848006890F84800EE
:1025B000022818D05549096801F14400496CB94313
:1025C000016001205149096881F848005DB101218D
:1025D0002846FFF7ACFA4FF0805054490860BFF32B
:1025E0004F8FBFF36F8F00F0BFFB00F09AFB1CB161
:1025F00046480068406C20604448006890F84800F5
:10260000012801D1002608E04049096801F1440091
:10261000496C21EA08010160012600203B49096854
:1026200081F8480000F0A0FB3046BDE8F0812DE9BC
:10263000F04706460D46174698464FF0010A3EB948
:1026400041F2FD02AFF61441AFF6004000F014FC79
:10265000344600F066FBB8F1000F02D0606CC8F899
:10266000000094F84890022084F84800052F17D203
:10267000DFE807F01503070B0D00606C284360646A
:102680000EE0606C401C60640AE0656408E0B9F12B
:10269000020F01D0656401E04FF0000A00E000BFC6
:1026A00000BFB9F1010F45D1201DFEF791FF94F84D
:1026B0002C10012088401649096808431449086015
:1026C000E16A01EB8101134A02EB8100211DFEF753
:1026D00059FFA06A08B9012000E0002038B941F292
:1026E0003512AFF6B041AFF69C4000F0C5FB07498C
:1026F000E06A0968C96A88421CD94FF080500B49CA
:102700000860BFF34F8F13E07C00002044000020DE
:102710005C0000206C0100201404002068000020F0
:102720006C000020580000206000002004ED00E054
:10273000BFF36F8F00F018FB5046BDE8F0872DE91E
:10274000F84F07460E4690469946DDF828B001201E
:1027500000903FB941F26812AFF62851AFF614501D
:1027600000F08AFB00F030FB3C4600BF5021EFF345
:10277000118081F31188BFF34F8FBFF36F8F00BFBC
:102780000546B9F1000F02D0606CC9F8000094F85A
:1027900048A0022084F84800B8F1050F17D2DFE8FE
:1027A00008F01503070B0D00606C304360640EE009
:1027B000606C401C60640AE0666408E0BAF1020FD5
:1027C00001D0666401E00020009000E000BF00BF7F
:1027D000BAF1010F3BD1A06A08B9012000E0002046
:1027E00038B941F2AF12AFF6B451AFF6A05000F0D5
:1027F00043FB59480068A8B9201DFEF7E9FE94F88C
:102800002C10012088405549096808435349086045
:10281000E16A01EB8101524A02EB8100211DFEF7C2
:10282000B1FE04E004F118014E48FEF7ABFE4E493C
:10283000E06A0968C96A884209D9BBF1000F03D070
:102840000120CBF8000002E001204849086000BFE9
:1028500085F3118800BF0098BDE8F88F2DE9F0419D
:1028600005460F463DB941F2E312AFF63861AFF6C7
:10287000246000F001FB00F0A7FA2C4600BF5021B5
:10288000EFF3118081F31188BFF34F8FBFF36F8F88
:1028900000BF064694F84880022084F84800606C27
:1028A000401C6064B8F1010F38D1A06A08B901205A
:1028B00000E0002038B941F20922AFF68861AFF696
:1028C000746000F0D9FA24480068A8B9201DFEF70A
:1028D0007FFE94F82C1001208840204909680843A5
:1028E0001E490860E16A01EB81011D4A02EB81008B
:1028F000211DFEF747FE04E004F118011948FEF718
:1029000041FE1949E06A0968C96A884206D917B1C7
:102910000120386002E001201449086000BF86F3FE
:10292000118800BFBDE8F08170B5054615B90E48A5
:10293000006800E02846064600F0F3F996F84800E3
:10294000022804D1002086F84800012400E0002479
:1029500000F00AFA204670BD7C0000205C000020D8
:102960006C010020140400204400002068000020B6
:1029700010B50146924800E0006803688B42FBD323
:102980000246436813448B4204D143684C68234495
:10299000436001460A464B6813440468A34211D1C0
:1029A000884C03682468A34208D04B6804686468B4
:1029B00023444B6003681B680B6005E0814B1B6878
:1029C0000B6001E003680B60884200D0016010BD1D
:1029D00030B54FF410437C4800F007042CB1C01D03
:1029E00020F00700784C041B1B1B0246744C22602D
:1029F0000024734D6C60D018083820F00700714C2B
:102A0000206000246F4D2D686C606E4D2D682C6029
:102A10001146441A4C606B4C24680C606B4D4C683A
:102A20002C606B4D4C682C604FF00044694D2C605D
:102A300030BD2DE9F04104464FF00008FFF7B5F82E
:102A40006048006808B9FFF7C3FF6248006820408B
:102A500000285FD1A4B1083404F0070080B104F06D
:102A60000700C0F10800044404F0070008B9012081
:102A700000E0002020B9BF2257A160A000F0FCF9BF
:102A8000002C47D052480068844243D84C4E304610
:102A9000056801E02E462D686868A04202D22868C9
:102AA0000028F7D147480068854233D0306800F1EC
:102AB0000808286830606868001B102813D92F198F
:102AC00007F0070008B9012000E0002020B9EC223F
:102AD00041A14AA000F0D0F96868001B78606C60E2
:102AE0003846FFF745FF3A4968680968081A3849C7
:102AF00008600846006835490968884203D23448AE
:102B000000683249086033496868096808436860AA
:102B100000202860FEF761FF08F0070008B90120D7
:102B200000E0002028B94FF496722BA133A000F0EA
:102B3000A3F94046BDE8F08170B506463546002E43
:102B400035D0083D2C46234960680968084008B123
:102B5000012000E0002028B94FF4A0721EA127A098
:102B600000F08AF9206808B9012000E0002028B9A7
:102B700040F2411218A121A000F07EF915496068C9
:102B80000968084098B1206888B9124960680968E6
:102B900088436060FFF709F80D49606809680844D8
:102BA0000B4908602046FFF7E3FEFEF716FF70BDF5
:102BB0000748006870470548006870477047000084
:102BC0008000002088000020500400209000002099
:102BD0008C000020940000202E2E5C467265655209
:102BE000544F535C706F72745C4D656D4D616E67D0
:102BF0005C686561705F342E630000004572726F1F
:102C0000723A25732C25640D0A0000008448006880
:102C1000401C08B9012000E0002020B9F52281A164
:102C20008AA000F029F900BF502080F31188BFF37B
:102C30004F8FBFF36F8F00BF00BFFEE7001F4FF045
:102C400080730360001F21F001030360001F834BAA
:102C500003601438026020387047814800684FF4E0
:102C60007A71B0FBF1F0401E4FF0E021486107207F
:102C7000086170471CB57B48014609780191FF2126
:102C8000024611700146097800919DF8001001F08C
:102C90005001754A11700721744A116009E07349A7
:102CA0000968491E714A11609DF800104906090E15
:102CB00000919DF8001001F080018029EFD06B4950
:102CC00009680902694A11601146098801F4E06146
:102CD0001160644A019911706548006840F4700001
:102CE000634908600846006840F070400860FFF7DC
:102CF000B4FF00204A490860FDF782FA00201CBD9D
:102D000010B547480068B0F57A7F01D1012000E096
:102D1000002028B940F26B1242A14CA000F0ACF8A0
:102D200010BD10B500BF502080F31188BFF34F8F46
:102D3000BFF36F8F00BF3A480068401C38490860F5
:102D40000846006801280ED149481C380068C0B206
:102D500008B9012000E0002028B940F27B1231A11F
:102D60003AA000F089F810BD10B52D48006828B9C8
:102D70004FF4C1722BA135A000F07EF828480068FE
:102D8000401E274908600846006820B9002080F3EB
:102D9000118800BF00BF10BD10B500BF502080F3E8
:102DA0001188BFF34F8FBFF36F8F00BFFEF78DFD0C
:102DB00020B14FF080502E491C39086000BF002020
:102DC00080F3118800BF10BD70B5FDF74FFA0546BE
:102DD000102D11D305F1E02090F8F043224800783F
:102DE000844201DB012000E0002028B940F2A92242
:102DF0000CA116A000F040F81D481438006800F43B
:102E0000E0601A490968884201D8012000E00020EA
:102E100028B940F2B92203A10CA000F02DF870BD32
:102E2000980000202E2E5C4672656552544F535C0C
:102E3000706F72745C525644535C41524D5F434D07
:102E4000335C706F72742E63000000004572726F05
:102E5000723A25732C25640D0A0000000D2C000821
:102E60001000002000E400E09C000020A0000020F2
:102E700020ED00E0704700000FB4044910B503AA2C
:102E8000029800F013F910BC5DF814FB3C00002020
:102E90002DE9F0410E460446002020622046E168FC
:102EA000884730B3252805D0D4E901219047206A0E
:102EB000401CF2E7E168204600278847050018D04B
:102EC000A5F14100192802D820354FF40067324699
:102ED000294620462760FDF765F940B1012804D056
:102EE000F61D26F007060836D8E7361DD6E7284631
:102EF000DAE7206ABDE8F08170B50C460546012A84
:102F000005D02878800600D5EA69002302E0012375
:102F100005E05B1C934202D2E05C0028F9D1A8696D
:102F2000E618C01AA861286A184428622846AFF338
:102F3000008004E0D5E9012114F8010B9047B44268
:102F4000F8D32846AFF3008070BD00002DE9F041B2
:102F50000646002410687529314616A510D0AFF337
:102F60000080002802DA404213A507E031688A0792
:102F700001D512A502E0490704D511A5012401E0FD
:102F8000AFF3008000210A2206F1240709E0B0FB1C
:102F9000F2FCB0FBF2F302FB1C0030307854184610
:102FA000491C0028F3D123462A463046BDE8F041AB
:102FB00000F00CB8000000002D0000002B00000005
:102FC0002000000070477047704770472DE9F047B8
:102FD0000D4699469246044600F124080168880689
:102FE00004D5E06921F01001216000E00120A84231
:102FF00001DD471B00E00027A1697A1902EB0900F7
:10300000081AA0612078C00602D42046AFF30080E1
:10301000002608E0D4E901211AF806009047206A4A
:10302000401C761C20624E45F4DB2078C0060AD591
:103030002046AFF3008006E0D4E90121302090471C
:10304000206A401C2062381EA7F10107F4DC07E06B
:10305000D4E9012118F805009047206A401C20623D
:10306000281EA5F10105F3DC2046AFF3008020788F
:10307000000602D50220BDE8F0870120FBE710B56D
:10308000436913B1AFF3008001E0FFF735FF012082
:1030900010BD127800F124010A7000224A7001224A
:1030A000EDE711684FF0FF32E9E70000074B70B51C
:1030B0000D467B4400F011F80446284600F020F845
:1030C00010B14FF0FF3070BD204670BD75E3FFFFBB
:1030D00001694A1C02610878704700B58FB0CDE9DC
:1030E00001310021059105497944CDE903101146CC
:1030F0006846FFF7CDFE0FB000BD0000E5FFFFFF03
:10310000007B00F080007047754600F02BF8AE465B
:1031100005006946534620F00700854618B020B5E3
:10312000FDF77CFBBDE820404FF000064FF00007A4
:103130004FF000084FF0000B21F00701AC46ACE85F
:10314000C009ACE8C009ACE8C009ACE8C0098D46CC
:10315000704710B50446AFF300802046BDE810402C
:10316000FDF735B800487047509400208C310008B6
:1031700000000020A40000006C01000830320008AC
:10318000A40000200C9A0000880100080000000044
:1031900000000000000000000000000000A24A043F
:1031A00000000000000000000102030406070809F7
:1031B00001000000000102030401020304060708E5
:1031C00009020406080000000000000000000000E2
:1031D00000000000000000000000000000000000EF
:1031E00000000000000000000000000000000000DF
:1031F00000000000000000000000000000000000CF
:1032000000000000000000000000000000000000BE
:1032100000000000000000000000000000000000AE
:1032200000000000AAAAAAAA0000000000000000F6
:0400000508000131BD
:00000001FF
